:020000040800F2
:100000002808002001010008AB020008A302000834
:10001000A702000875010008B70A000800000000E8
:100020000000000000000000000000001D070008A4
:1000300079010008000000001D03000831080008D5
:100040001B0100081B0100081B0100081B01000820
:100050001B0100081B0100081B0100081B01000810
:100060001B0100081B0100081B0100081B01000800
:100070001B0100081B0100081B0100081B010008F0
:100080001B0100081B0100081B0100081B010008E0
:100090001B0100081B0100081B0100081B010008D0
:1000A0001B0100081B0100081B0100081B010008C0
:1000B0001B0100081B0100081B0100081B010008B0
:1000C0001B0100081B0100081B0100081B010008A0
:1000D0001B010008950800081B0100081B0100080F
:1000E0001B0100081B0100081B010008DFF80CD0F1
:1000F00000F02EF800480047490D000828080020AD
:100100000648804706480047FEE7FEE7FEE7FEE7B1
:10011000FEE7FEE7FEE7FEE7FEE7FEE7350800083C
:10012000ED00000830B50B460146002020220124D6
:1001300009E021FA02F59D4205D303FA02F5491BB5
:1001400004FA02F52844151EA2F10102F1DC30BDCB
:10015000064C074D06E0E06840F0010394E8070014
:1001600098471034AC42F6D3FFF7C4FF3C0F0008A9
:100170005C0F000800BFFEE770472DE9F041024622
:1001800000250026002000230024002791F803C04A
:100190000CF00F0591F803C00CF0100CBCF1000F2F
:1001A00003D091F802C04CEA050591F800C0BCF1FB
:1001B000000F31D0146800202BE04FF0010C0CFA36
:1001C00000F3B1F800C00CEA03069E4220D1830080
:1001D0004FF00F0C0CFA03F7BC4305FA03FC4CEA92
:1001E000040491F803C0BCF1280F06D14FF0010CB4
:1001F0000CFA00FCC2F814C00AE091F803C0BCF18C
:10020000480F05D14FF0010C0CFA00FCC2F810C0E9
:10021000401C0828D1D31460B1F800C0BCF1FF0F16
:1002200034DD546800202EE000F1080C4FF0010886
:1002300008FA0CF3B1F800C00CEA03069E4221D183
:1002400083004FF00F0C0CFA03F7BC4305FA03FCD4
:100250004CEA040491F803C0BCF1280F05D100F169
:10026000080C08FA0CF8C2F8148091F803C0BCF12D
:10027000480F07D100F1080C4FF0010808FA0CF8FC
:10028000C2F81080401C0828CED35460BDE8F0812D
:100290000246002093680B400BB1012000E00020D3
:1002A000704700BFFEE700BFFEE7704770B5002152
:1002B00000230F22C47804B3154C246804F4E064CE
:1002C000C4F5E064210AC1F10403CA40447804FA89
:1002D00003F184781440214309010E4C0678A1559E
:1002E000047804F01F050124AC4005786D11AD00C1
:1002F00005F1E025C5F8004109E0047804F01F0588
:100300000124AC40044D0678761145F8264070BDB6
:100310000CED00E000E400E080E100E07047000048
:1003200029B1064A92690243044B9A6104E0034AE8
:1003300092698243014B9A617047000000100240AD
:1003400030B500210022002400232D4D6D6805F0FA
:100350000C0121B1042905D0082923D105E0294D3C
:10036000056022E0274D05601FE0254D6D6805F40E
:100370007012234D6D6805F48034022505EB92421E
:100380001CB9214D554305600BE01D4D6D6805F40A
:1003900000351DB11C4D5543056002E0194D554314
:1003A000056002E0174D056000BF00BF144D6D6889
:1003B00005F0F0010909154D6B5C0568DD404560ED
:1003C0000F4D6D6805F4E061090A104D6B5C4568DE
:1003D000DD4085600A4D6D6805F46051C90A0B4D1A
:1003E0006B5C4568DD40C560054D6D6805F44041B6
:1003F000890B074D6B5CC568B5FBF3F5056130BD36
:100400000010024000127A0000093D002600002082
:100410003600002008B50220ADF8000001208DF85C
:10042000020004208DF8030069460248FFF7A5FE8C
:1004300008BD0000000C014008B50220ADF8000026
:1004400010208DF8030003208DF802006946024851
:10045000FFF793FE08BD0000000C014008B5012124
:100460000820FFF75DFF0120ADF8000010208DF897
:10047000030003208DF8020069460548FFF77DFE62
:100480000220ADF8000069460148FFF776FE08BD7E
:10049000000C014010B500200A490860FFF7CCFFAE
:1004A00000200949C1F88401142000F019FC012042
:1004B00004490860142000F013FC00200249C1F830
:1004C000800110BD808121420080214210B50020B2
:1004D0000A490860FFF7B0FF01200949C1F884010B
:1004E000142000F0FDFB012004490860142000F0F6
:1004F000F7FB00200249C1F8800110BD8081214234
:100500000080214270B505460024FFF783FF0026D6
:1005100019E0002011490860142000F0E1FB0120DF
:100520000F49C1F880014FF6FF7000EA4404022130
:100530000C48FFF7ADFE08B1601C84B2142000F037
:10054000CFFB701CC6B2082EE3DB15B9FFF7BEFF68
:1005500001E0FFF79FFF204670BD0000808121422F
:1005600000802142000C014070B50446FFF764FF93
:1005700000201449086000251EE0E00920B1012098
:100580001049091D086003E000200E49091D08609C
:100590006006040E142000F0A3FB01200949086046
:1005A000142000F09DFB00200749C1F880011420B1
:1005B00000F096FB681CC5B2082DDEDB142000F0AD
:1005C0008FFB70BD808121420080214210B5FFF772
:1005D00033FF0120094908600949C1F8800114204E
:1005E00000F07EFB002005490860142000F078FB35
:1005F00000200349C1F8800110BD00008481214220
:100600000080214210B5FFF717FF0020084908605D
:100610000849C1F88401142000F062FB012004495C
:1006200008600449C1F88401142000F059FB10BD92
:10063000808121420080214210B50024FFF7EAFEAC
:100640000120104908600A2000F04AFB01200E49F1
:10065000C1F880010A2000F043FB07E0601CC4B22F
:10066000FA2C03DDFFF7CEFF012010BD0221074861
:10067000FFF70EFE0028F1D10249091F086000BFF4
:10068000F3E700008481214200802142000C0140F8
:1006900010B5FFF7E3FE0321202000F025F810BD80
:1006A00070B5FFF793FFB120FFF75EFFFFF7C4FFC0
:1006B0000120FFF727FF044624020120FFF722FF55
:1006C00004440120FFF71EFFC5B200BF2402012031
:1006D000FFF718FF044424020020FFF713FF04442F
:1006E000FFF790FF204670BD70B505460C46FFF73A
:1006F0006DFFB020FFF738FFFFF79EFF2846FFF79A
:1007000033FFFFF799FF2046FFF72EFFFFF794FF17
:10071000FFF778FF642000F0BDFA70BD704710B598
:1007200000F002F810BD00000CB500200190009010
:100730003348006840F480303149086000BF3048D9
:10074000006800F4003000900198401C019000986F
:1007500018B90198B0F5A06FF1D12948006800F4EC
:10076000003010B10120009001E0002000900098BE
:10077000012843D12348006840F010002149086057
:100780000846006820F0030008600846006840F052
:10079000020008601A4840681949486008464068E5
:1007A00048600846406840F48060486008464068F9
:1007B00020F47C1048600846406840F4E810486027
:1007C0000846006840F08070086000BF0C48006870
:1007D00000F000700028F9D00948406820F00300BC
:1007E000074948600846406840F00200486000BF82
:1007F0000348406800F00C000828F9D10CBD000047
:100800000010024000200240042808D14FF0E021EF
:10081000096941F004014FF0E022116107E04FF057
:10082000E021096921F004014FF0E02211617047D5
:100830007047000010B51348006840F001001149EE
:10084000086008464068104908400E49486008465C
:1008500000680E4908400B4908600846006820F40B
:10086000802008600846406820F4FE0048604FF48D
:100870001F008860FFF753FF4FF0006004490860D5
:1008800010BD0000001002400000FFF8FFFFF6FE60
:1008900008ED00E010B540F225511D4800F04AF87F
:1008A00010B31B4800F002F9C4B21A48008800F4E3
:1008B0000040C8B91748008800F4804060B10A2C95
:1008C00003D000201349088020E01248008840F43B
:1008D00000401049088019E00D2C06D10D48008811
:1008E00040F480400B49088010E00A480088C0F3BB
:1008F0000D0009490C5407480088401C0549088030
:1009000008460088C72801DD0020088010BD0000CF
:1009100000380140240000205C03002021B18289BE
:1009200042F40052828104E082894DF6FF731A403E
:100930008281704770B50246002400230025002004
:1009400040F66A16B14200D100BFC1F3421501F072
:100950001F03012606FA03F3012D02D196893340C5
:1009600006E0022D02D1168A334001E0968A334018
:100970000C12012606FA04F41688344013B10CB1A7
:10098000012000E0002070BDF0B5034600240026E1
:100990000025002040F66A17B94200D100BF184672
:1009A000C1F3421401F01F06012707FA06F5012CD6
:1009B00001D10C3004E0022C01D1103000E01430E1
:1009C0001AB107682F43076002E00768AF4307606A
:1009D000F0BD00002DE9F04786B005460E46002424
:1009E000A24600BFA1460027B08900B100BF2F4634
:1009F0002C8A4CF6FF700440F08804432C82AC89AA
:100A00004EF6F3100440B0883189084371890843D9
:100A10000443AC81AC8A4FF6FF400440B0890443E4
:100A2000AC8201A8FFF78CFC1F48874202D1DDF899
:100A300010A001E0DDF80CA0A88900F4004040B14E
:100A40000AEBCA0000EB0A1031684900B0FBF1F86C
:100A500007E00AEBCA0000EB0A1031688900B0FB1E
:100A6000F1F86420B8FBF0F004012009642101FBD7
:100A70001089A88900F4004040B1322000EBC90081
:100A8000B0FBF1F000F00700044308E0322000EB77
:100A900009106421B0FBF1F000F00F0004432C8139
:100AA00006B0BDE8F08700000038014001468888A4
:100AB000C0F30800704700BFFEE700000FB4054B0D
:100AC00010B503A9044A029800F018F810BC5DF8AC
:100AD00014FB00002D0D00082000002002E008C8D3
:100AE000121F08C1002AFAD170477047002001E0A8
:100AF00001C1121F002AFBD1704700002DE9FF4FF2
:100B000089B09B460446002506E025280BD05A46AE
:100B10000B999047641C6D1C20780028F5D10DB00E
:100B20002846BDE8F08F0027B8460122474900E07B
:100B3000074314F8013F203B02FA03F00842F7D1C3
:100B400020782E2819D114F8010F47F004072A281D
:100B50000ED06FF02F022078A0F1300109290CD8B7
:100B600008EB880102EB410100EB0108641CF2E78D
:100B70000A98641C50F8048B0A9020780028CED084
:100B8000642808D0692806D075281ED05A460B99CB
:100B900090476D1C58E00A994FF00A0901C90A9163
:100BA000002802DA40422D2102E0390504D52B212C
:100BB0008DF82010012103E0F90704D02021F7E788
:100BC0008A4608AE0DE00021FAE70A994FF00A09BB
:100BD00001C90A91F7E74946FFF7A4FA303106F850
:100BE000011D0028F7D1ADEB060000F120097807C0
:100BF00001D44FF00108C84502DDA8EB090000E070
:100C000000208046002706E008A85A46C05D0B99E0
:100C100090476D1C7F1C5745F6DB04E030205A4698
:100C20000B9990476D1CB8F10001A8F10108F5DCA3
:100C300005E016F8010B5A460B9990476D1CB9F167
:100C40000001A9F10109F4DC641C65E70928010031
:100C500010B56FF00400FFF7D7FD0A4800680A4995
:100C6000B0FBF1F0094908700846007800EB40013C
:100C7000C1EBC0104FF6FF7101EAC00004490880C3
:100C800010BD00000800002000127A001C000020A7
:100C90001E0000200146114A12884A434FF0E0230B
:100CA0005A6100229A611A46126942F001021A61E1
:100CB00000BF4FF0E022106900F001021AB100F409
:100CC0008032002AF5D04FF0E022126922F00102B2
:100CD0004FF0E0231A6100229A6170471E00002045
:100CE0000146114A12784A434FF0E0235A6100222C
:100CF0009A611A46126942F001021A6100BF4FF070
:100D0000E022106900F001021AB100F48032002ADA
:100D1000F5D04FF0E022126922F001024FF0E023FB
:100D20001A6100229A6170471C00002000BF054A2A
:100D3000128802F04002002AF9D0C2B2014B1B1DFA
:100D40001A80704700380140FFF782FF4FF41650B9
:100D500000F0A4F8FFF79CFC6420FFF79BFF1DE068
:100D600000F024F80446B4F5FA7F02D90CA0FFF78E
:100D7000A5FE4FF47A70FFF78DFF4FF47A70FFF7FE
:100D800089FF4FF47A70FFF785FF4FF47A70FFF711
:100D900081FF4FF47A70FFF77DFF00BFE0E70000AE
:100DA000C4E3CAC7D7A10D0A000000002DE9F0472F
:100DB00000240027A0466420FFF76CFF08212020B4
:100DC000FFF792FCFFF76CFC0546280C24490860ED
:100DD000A8B22449086013E008212020FFF784FC12
:100DE000FFF75EFC0546280C1D490860A8B21D49A6
:100DF00008601DA0FFF762FE4FF4FA70FFF74AFF8C
:100E000017480068B0F5C87F03D11648006800286D
:100E1000E2D0002411E0280C174941F82400A8B2C0
:100E2000164941F82400144850F8240007440846A5
:100E300050F824008044601CC4B2642CEBDB6420B6
:100E4000B7FBF0F6B8FBF0F94A4631460CA0FFF7C5
:100E500035FE4FF4FA70FFF71DFF3046BDE8F0870E
:100E60000000002004000020D5FDD4DABCECB2E282
:100E7000D6D02E2E2E0D0A003C000020CC010020E2
:100E8000434F323A25642070706D200D0A2054566D
:100E90004F433A2564207070640D0A0010B586B087
:100EA0000446012144F20400FFF73AFA4FF40070BF
:100EB000ADF8140003208DF8160018208DF81700E7
:100EC00005A91C48FFF759F94FF48060ADF81400EC
:100ED00004208DF8170005A91648FFF74EF92520C4
:100EE0008DF8000003208DF801008DF8020001202C
:100EF0008DF803006846FFF7D9F901940020ADF89A
:100F00000800ADF80A00ADF80C00ADF810000C2098
:100F1000ADF80E0001A90848FFF75CFD012240F280
:100F200025510548FFF730FD01210348FFF7F6FC86
:100F300006B010BD00080140003801405C0F0008F9
:100F4000000000203C000000DC0A0008980F0008A8
:100F50003C000020EC070000EC0A00080000000044
:100F60000000000000A24A04000000000000000091
:100F70000102030406070809000000000000000049
:100F80000000000000000102030401020304060740
:080F9000080902040608000034
:0400000508000101ED
:00000001FF
